:020000040800F2
:1000000000280020D5120008651200086B120008B5
:1000100071120008771200087D120008000000002D
:100020000000000000000000000000008312000833
:100030008F120008000000009B120008A7120008A1
:100040001D1300081D1300081D1300081D130008D0
:100050001D1300081D1300081D1300081D130008C0
:100060001D1300081D1300081D1300081D130008B0
:100070001D1300081D1300081D1300081D130008A0
:100080001D1300081D1300081D1300081D13000890
:100090001D1300081D1300081D1300081D13000880
:1000A0001D1300081D1300081D1300081D13000870
:1000B000B51200081D130008000000001D13000801
:1000C0001D13000800000000000000001D130008C0
:1000D000000000001D1300081D13000800000000B0
:1000E0001D1300081D1300081D1300080000000068
:1000F0000000000000000000000000000000000000
:0C01000000000000000000005FF808F1A3
:10010C0010B5054C237833B9044B13B10448AFF345
:10011C0000800123237010BD4C0000200000000063
:10012C006429000808B5034B1BB103490348AFF31E
:10013C00008008BD00000000500000206429000869
:10014C0080B483B000AF78607B68002B02DD7B68E5
:10015C00032B01DD00230FE07B68013B094A52F8B9
:10016C002330002B07D07B68013B064A002142F864
:10017C002310012300E0002318460C37BD4680BC39
:10018C00704700BF6800002080B483B000AF786077
:10019C007B68002B09DD7B68032B06DC7B68013B4D
:1001AC00044A012142F8231000E000BF0C37BD4681
:1001BC0080BC70476800002080B584B000AF7860C8
:1001CC007B68002B40F388807B68032B00F38480D2
:1001DC007B68013BFB60424AFB681B011344043300
:1001EC001A683F49FB681B010B441A603C4AFB68C8
:1001FC001B01134408331A683949FB681B010B4473
:10020C0004331A60374AFB6852F823301846364AD2
:10021C00FB6852F823309BB2194601F065FB03468C
:10022C0019462F4AFB681B011344083319602C4AEA
:10023C00FB681B0113441A682949FB681B010B441A
:10024C0004331B689A4248D1254AFB681B011344AE
:10025C0004331A682249FB681B010B4408331B68E2
:10026C009A423AD11E4AFB681B0113440C331A689C
:10027C001B49FB681B010B4408331B689A421AD0BC
:10028C00174AFB681B01134408331A681449FB68AE
:10029C001B010B440C331A60114AFB681B011344FD
:1002AC0008331B68002B18D17868FFF76DFF0F4BD4
:1002BC0064221A6011E00D4B1B68013B0B4A136062
:1002CC000A4B1B68002B08D1054AFB681B01134421
:1002DC000C3301221A6000E000BF1037BD4680BD10
:1002EC00000000207C29000888290008300000202C
:1002FC0080B500AFB54B1B68013B042B00F2498164
:10030C0001A252F823F000BF29030008750300086E
:10031C00FD030008850400080B05000801220121DB
:10032C00012000F023FD01220121012000F040FDFD
:10033C00A74B1B684FF47A7202FB03F3184600F0CC
:10034C009FFE4FF47A7000F0B7FE642000F0D0FEF0
:10035C00A04B1B689E4A12681146184600F060FDBF
:10036C009A4B02221A6014E101220121002000F0B4
:10037C00FDFC01220021012000F01AFD0120FFF7F5
:10038C00DFFE0346012B0FD101220121012000F0D9
:10039C000FFD01220121012000F00AFD642000F074
:1003AC00A7FE8A4B0C221A608B4B1B68012B13D1B6
:1003BC008A4B1B684FF47A7202FB03F3184600F069
:1003CC005FFE864B1B68854A12681146184600F082
:1003DC0027FD7E4B03221A60814B1B68012B40F0DA
:1003EC00D18000F009FD4FF47A7000F065FEC9E091
:1003FC0001220121002000F0B9FC00220121012082
:10040C0000F0D6FC0120FFF79BFE0346012B0FD119
:10041C0001220121012000F0CBFC0122012101204D
:10042C0000F0C6FC642000F063FE684B0C221A60DE
:10043C00694B1B68012B13D1654B1B684FF47A7207
:10044C0002FB03F3184600F01BFE614B1B68614A6C
:10045C0012681146184600F0E3FC5C4B04221A604B
:10046C005F4B1B68012B40F08F8000F0C5FC4FF4F4
:10047C007A7000F021FE87E001220021012000F0BB
:10048C0075FC01220121002000F092FC0120FFF7F5
:10049C0057FE0346012B0FD101220121012000F050
:1004AC0087FC01220121012000F082FC642000F075
:1004BC001FFE464B0C221A60474B1B68012B13D1B5
:1004CC00464B1B684FF47A7202FB03F3184600F09C
:1004DC00D7FD424B1B68414A12681146184600F082
:1004EC009FFC3A4B05221A603D4B1B68012B4DD1EA
:1004FC0000F082FC4FF47A7000F0DEFD46E0002242
:10050C000121012000F032FC01220121002000F029
:10051C004FFC0120FFF714FE0346012B0FD10122E3
:10052C000121012000F044FC01220121012000F0F6
:10053C003FFC642000F0DCFD244B0C221A60264B9F
:10054C001B68012B13D1224B1B684FF47A7202FBF0
:10055C0003F3184600F094FD1E4B1B681C4A1268EE
:10056C001146184600F05CFC184B02221A601C4B1A
:10057C001B68012B0CD100F03FFC4FF47A7000F09B
:10058C009BFD05E000BF04E000BF02E000BF00E0FF
:10059C0000BF144B1B68012B15D100F031FB124B23
:1005AC001B68184600F06CFB0F4B1B6801330E4A9E
:1005BC0013600D4B1B68032B02DD0B4B00221A60E2
:1005CC00642000F095FD00BF80BD00BF78000020C6
:1005DC003C0000203400002098000020380000204F
:1005EC00A0000020A80000207400002080B400AF00
:1005FC00074B1B68074A1360074B1B68074A1360BD
:10060C00074B1B68074A136000BFBD4680BC704790
:10061C0034000020AC00002038000020B000002086
:10062C003C000020B400002080B500AFA34B1B6839
:10063C000E2B00F0D5800E2B00F335810C2B02D045
:10064C000D2B67D02FE19E4B1B680121184600F043
:10065C00E7FB9C4B1B68012B1ED14FF480719A4811
:10066C0001F071F92021984801F06DF900F0C8FAF9
:10067C00964B1B68184600F003FB944B1B68013328
:10068C00924A1360914B1B68032B02DD8F4B0022A7
:10069C001A60642000F02CFD0120FFF751FD034689
:1006AC00002B0FD001220121012000F081FB01223F
:1006BC000121012000F05AFB642000F019FD7F4B52
:1006CC000D221A600220FFF73BFD0346002B0BD0D6
:1006DC007B4B1B68622B03DC794B1B68013301E0FD
:1006EC007B4B1B68764A13600320FFF729FD0346FA
:1006FC00002B00F0DB80724B1B68754A1360744B47
:10070C001A68744B1B68D31A734A13606B4B012223
:10071C001A60CBE0714B1B680221184600F080FB7D
:10072C00684B1B68012B1ED14FF40071664801F019
:10073C000AF94021644801F006F900F061FA634BB4
:10074C001B68184600F09CFA604B1B6801335F4A2B
:10075C0013605E4B1B68032B02DD5C4B00221A609E
:10076C00642000F0C5FC0120FFF7EAFC0346012BD6
:10077C000FD101220121012000F01AFB01220121DD
:10078C00012000F0F3FA642000F0B2FC4B4B0E2277
:10079C001A600220FFF7D4FC0346012B0BD14F4B00
:1007AC001B68622B03DC4D4B1B68013301E0494B8A
:1007BC001B684A4A13600320FFF7C2FC0346012B57
:1007CC0076D1464B1B68434A1360434B1A68414B26
:1007DC001B6813443E4A1360384B01221A6067E0D1
:1007EC003F4B1B680321184600F01AFB354B1B6866
:1007FC00012B1ED14FF48061334801F0A4F8802105
:10080C00314801F0A0F800F0FBF9304B1B6818469A
:10081C0000F036FA2D4B1B6801332C4A13602B4B1E
:10082C001B68032B02DD294B00221A60642000F0A8
:10083C005FFC0120FFF784FC0346012B0CD1012245
:10084C000121012000F0B4FA01220121012000F065
:10085C008DFA1A4B01221A600220FFF771FC034635
:10086C00012B0BD11E4B1B68622B03DC1C4B1B6832
:10087C00013301E0184B1B68194A13600320FFF782
:10088C005FFC0346012B15D1154B1B68124A1360F4
:10089C00114B1A680F4B1B6813440D4A1360074B1E
:1008AC0001221A6006E0FFF7A1FE04E000BF02E09F
:1008BC0000BF00E000BF00BF80BD00BF780000207B
:1008CC00AC000020A80000200008014074000020AB
:1008DC0034000020380000203C000020B000002034
:1008EC00B400002080B582B000AF78607B68092B23
:1008FC0000F2808101A252F823F000BF31090008F8
:10090C0079090008C1090008090A0008510A000801
:10091C00990A0008E10A0008290B0008710B00086D
:10092C00B90B000800220121B44800F0F4FF0022AA
:10093C000221B24800F0EFFF00220421AF4800F082
:10094C00EAFF00220821AD4800F0E5FF002210214B
:10095C00AA4800F0E0FF00222021A84800F0DBFFAD
:10096C0001224021A54800F0D6FF43E101220121DC
:10097C00A24800F0D0FF00220221A04800F0CBFFDB
:10098C00002204219D4800F0C6FF012208219B484B
:10099C0000F0C1FF01221021984800F0BCFF012299
:1009AC002021964800F0B7FF01224021934800F027
:1009BC00B2FF1FE100220121904800F0ACFF0022A1
:1009CC0002218E4800F0A7FF012204218B4800F081
:1009DC00A2FF00220821894800F09DFF002210216F
:1009EC00864800F098FF01222021844800F093FFF4
:1009FC0000224021814800F08EFFFBE00022012103
:100A0C007E4800F088FF002202217C4800F083FF22
:100A1C0000220421794800F07EFF0022082177484B
:100A2C0000F079FF01221021744800F074FF0122BC
:100A3C002021724800F06FFF002240216F4800F027
:100A4C006AFFD7E0012201216C4800F064FF00220C
:100A5C0002216A4800F05FFF00220421674800F081
:100A6C005AFF01220821654800F055FF0122102190
:100A7C00624800F050FF00222021604800F04BFF3C
:100A8C00002240215D4800F046FFB3E00022012126
:100A9C005A4800F040FF01220221584800F03BFF69
:100AAC0000220421554800F036FF0022082153484B
:100ABC0000F031FF01221021504800F02CFF0022E1
:100ACC0020214E4800F027FF002240214B4800F027
:100ADC0022FF8FE000220121484800F01CFF012278
:100AEC000221464800F017FF00220421434800F081
:100AFC0012FF00220821414800F00DFF00221021B6
:100B0C003E4800F008FF002220213C4800F003FF83
:100B1C0000224021394800F0FEFE6BE0002201214A
:100B2C00364800F0F8FE00220221344800F0F3FEB3
:100B3C0000220421314800F0EEFE012208212F484A
:100B4C0000F0E9FE012210212C4800F0E4FE012205
:100B5C0020212A4800F0DFFE01224021274800F026
:100B6C00DAFE47E000220121244800F0D4FE0022E6
:100B7C000221224800F0CFFE002204211F4800F081
:100B8C00CAFE002208211D4800F0C5FE00221021DB
:100B9C001A4800F0C0FE00222021184800F0BBFECD
:100BAC0000224021154800F0B6FE23E0002201216E
:100BBC00124800F0B0FE00220221104800F0ABFEFB
:100BCC00002204210D4800F0A6FE002208210B484B
:100BDC0000F0A1FE01221021084800F09CFE00222A
:100BEC002021064800F097FE00224021034800F027
:100BFC0092FE00BF00BF0837BD4680BD000C01400F
:100C0C0080B400AF1A4B1B681A4A82FB0312921075
:100C1C00DB17D31A184A1360154B1968154B83FB55
:100C2C0001239A10CB17D21A13469B0013445B0076
:100C3C00CA1A114B5A60114B1B680E4A82FB0312E5
:100C4C009210DB17D31A0C4A93600C4B1968094BA2
:100C5C0083FB01239A10CB17D21A13469B00134423
:100C6C005B00CA1A044BDA6000BFBD4680BC7047FB
:100C7C008000002067666666840000207C000020EF
:100C8C0080B582B000AF7860364A7B6852F823306A
:100C9C001846FFF727FE7B68032B5FD801A252F89A
:100CAC0023F000BFC10C0008EB0C0008150D000868
:100CBC003F0D0008002202212B4800F02CFE0122DF
:100CCC000421294800F027FE01220821264800F0C3
:100CDC0022FE01221021244800F01DFE3EE00122DC
:100CEC000221214800F017FE002204211E4800F0CA
:100CFC0012FE012208211C4800F00DFE01221021D9
:100D0C00194800F008FE29E001220221164800F0E3
:100D1C0002FE01220421144800F0FDFD00220821EE
:100D2C00114800F0F8FD012210210F4800F0F3FDEE
:100D3C0014E0012202210C4800F0EDFD01220421F7
:100D4C00094800F0E8FD01220821074800F0E3FD06
:100D5C0000221021044800F0DEFD00BF00BF083760
:100D6C00BD4680BD840000200008014080B584B0E1
:100D7C0000AFF860B9607A60FB68DBB21A462021DC
:100D8C000A4800F0C8FDBB68DBB21A468021074850
:100D9C0000F0C1FD7B68DBB21A464021034800F02D
:100DAC00BAFD00BF1037BD4680BD00BF0008014032
:100DBC0080B584B000AFF860B9607A60FB68DBB2D4
:100DCC001A464FF480710B4800F0A5FDBB68DBB2EE
:100DDC001A464FF48061074800F09DFD7B68DBB23A
:100DEC001A464FF40071034800F095FD00BF103710
:100DFC00BD4680BD0008014080B400AF064B1B68A7
:100E0C00013B054A1360054B1B68013B034A136009
:100E1C0000BFBD4680BC70477C00002080000020D5
:100E2C0080B483B000AF78603960054A3B681360CA
:100E3C00044A7B68136000BF0C37BD4680BC70470A
:100E4C007C0000208000002080B500AF00F062FA2A
:100E5C0000F014F800F09AF800F04CF8054801F096
:100E6C00B7F9054B01221A60FFF742FAFFF7DCFBDA
:100E7C00FAE700BFB80000207800002080B590B0E1
:100E8C0000AF07F1180328220021184601F05CFD81
:100E9C003B1D00221A605A609A60DA601A610223C4
:100EAC00BB610123BB621023FB6200237B6307F150
:100EBC001803184600F060FD0346002B01D000F02B
:100ECC00DAF80F237B600023BB600023FB60002358
:100EDC003B6100237B613B1D0021184600F0CCFFD9
:100EEC000346002B01D000F0C6F800BF4037BD46CA
:100EFC0080BD000080B586B000AF07F1080300226A
:100F0C001A605A609A60DA603B4600221A605A6096
:100F1C001D4B4FF080421A601B4B41F63F725A60DA
:100F2C00194B00229A60184B0922DA60164B0022EA
:100F3C001A61154B00229A61134801F0F9F8034627
:100F4C00002B01D000F097F84FF48053BB6007F1F1
:100F5C00080319460C4801F08FFA0346002B01D008
:100F6C0000F089F800233B6000237B603B46194668
:100F7C00054801F05BFC0346002B01D000F07BF828
:100F8C0000BF1837BD4680BDB800002080B586B0C4
:100F9C0000AF07F1080300221A605A609A60DA6009
:100FAC00284B9B69274A43F004039361254B9B69AB
:100FBC0003F004037B607B68224B9B69214A43F05E
:100FCC00080393611F4B9B6903F008033B603B686C
:100FDC00002240F2FE711C4800F09DFC00227F2193
:100FEC001A4800F098FC40F2FE73BB600123FB60D2
:100FFC0000233B6102237B6107F108031946124869
:10100C0000F0F8FA7F23BB600123FB6000233B61F7
:10101C0002237B6107F1080319460C4800F0EAFA39
:10102C004FF46043BB600023FB6001233B6107F17D
:10103C0008031946054800F0DDFA00BF1837BD4615
:10104C0080BD00BF0010024000080140000C0140B0
:10105C0080B582B000AF786000F066F80120FFF731
:10106C00ABF80220FFF7A8F80320FFF7A5F800BFA4
:10107C000837BD4680BD80B400AF72B600BFFEE736
:10108C0080B483B000AF78607B68084A82FB03129F
:10109C009210DB17D31A064A1360064B00221A6013
:1010AC0000BF0C37BD4680BC704700BF67666666E4
:1010BC00940000209800002080B483B000AF7860CA
:1010CC007B68084A82FB03129210DB17D31A064A7C
:1010DC001360064B00221A6000BF0C37BD4680BC63
:1010EC00704700BF676666669C000020A000002069
:1010FC0080B483B000AF78607B68084A82FB03122F
:10110C009210DB17D31A064A1360064B00221A60A2
:10111C0000BF0C37BD4680BC704700BF6766666673
:10112C00A4000020A800002080B400AF194B1B685D
:10113C00002B0BDD174B1B68013B164A1360154B3C
:10114C001B68002B02DC144B01221A60134B1B682A
:10115C00002B0BDD114B1B68013B104A13600F4B2E
:10116C001B68002B02DC0E4B01221A600D4B1B6816
:10117C00002B0BDD0B4B1B68013B0A4A1360094B20
:10118C001B68002B02DC084B01221A6000BFBD4615
:10119C0080BC704794000020980000209C00002028
:1011AC00A0000020A4000020A800002080B485B07E
:1011BC0000AF154B9B69144A43F001039361124B2A
:1011CC009B6903F00103BB60BB680F4BDB690E4AE4
:1011DC0043F08053D3610C4BDB6903F080537B608D
:1011EC007B680A4B5B68FB60FB6823F0E063FB6089
:1011FC00FB6843F08063FB60044AFB68536000BFEC
:10120C001437BD4680BC70470010024000000140FE
:10121C0080B584B000AF78607B681B68B3F1804FF9
:10122C0013D10C4BDB690B4A43F00103D361094B1F
:10123C00DB6903F00103FB60FB68002200211C202A
:10124C0000F0A1F91C2000F0BAF900BF1037BD4620
:10125C0080BD00BF0010024080B400AFFEE780B438
:10126C0000AFFEE780B400AFFEE780B400AFFEE74E
:10127C0080B400AFFEE780B400AF00BFBD4680BCB9
:10128C00704780B400AF00BFBD4680BC704780B4CF
:10129C0000AF00BFBD4680BC704780B500AF00F00A
:1012AC007FF800BF80BD000080B500AF024800F0A1
:1012BC00DBFF00BF80BD00BFB800002080B400AFD2
:1012CC0000BFBD4680BC7047FFF7F8FF0B480C49C8
:1012DC000C4A002302E0D458C4500433C4188C4286
:1012EC00F9D3094A094C002301E013600432A242ED
:1012FC00FBD301F005FBFFF7A7FD704700000020B2
:10130C004C000020C02900084C00002004010020E3
:10131C00FEE7000080B500AF084B1B68074A43F09E
:10132C0010031360032000F023F90F2000F008F8DD
:10133C00FFF73CFF0023184680BD00BF0020024091
:10134C0080B582B000AF7860124B1A68124B1B78D4
:10135C0019464FF47A73B3FBF1F3B2FBF3F318466F
:10136C0000F03BF90346002B01D001230EE07B6813
:10137C000F2B0AD8002279684FF0FF3000F003F9E8
:10138C00064A7B681360002300E0012318460837E7
:10139C00BD4680BD400000204800002044000020D5
:1013AC0080B400AF054B1B781A46054B1B681344E1
:1013BC00034A136000BFBD4680BC70474800002044
:1013CC000001002080B400AF024B1B681846BD46DC
:1013DC0080BC70470001002080B485B000AF7860FD
:1013EC007B6803F00703FB600C4BDB68BB60BA68DF
:1013FC004FF6FF031340BB60FB681A02BB68134334
:10140C0043F0BF6343F40033BB60044ABB68D36052
:10141C0000BF1437BD4680BC704700BF00ED00E034
:10142C0080B400AF044BDB681B0A03F007031846BB
:10143C00BD4680BC704700BF00ED00E080B483B0B7
:10144C0000AF0346FB7197F90730002B0BDBFB79E0
:10145C0003F01F02064997F907305B09012000FAD7
:10146C0002F241F8232000BF0C37BD4680BC704708
:10147C0000E100E080B483B000AF03463960FB713B
:10148C0097F90730002B0ADB3B68DAB20C4997F965
:10149C0007301201D2B20B4483F800230AE03B68F8
:1014AC00DAB20849FB7903F00F03043B1201D2B204
:1014BC000B441A7600BF0C37BD4680BC704700BF8A
:1014CC0000E100E000ED00E080B489B000AFF8600E
:1014DC00B9607A60FB6803F00703FB61FB69C3F139
:1014EC000703042B28BF0423BB61FB690433062BC1
:1014FC0002D9FB69033B00E000237B614FF0FF3214
:10150C00BB6902FA03F3DA43BB681A407B699A4061
:10151C004FF0FF317B6901FA03F3D9437B680B4031
:10152C00134318462437BD4680BC704780B582B043
:10153C0000AF78607B68013BB3F1807F01D301235E
:10154C000FE00A4A7B68013B53600F214FF0FF30DC
:10155C00FFF790FF054B00229A60044B07221A609C
:10156C00002318460837BD4680BD00BF10E000E0E0
:10157C0080B582B000AF78607868FFF72DFF00BFB0
:10158C000837BD4680BD80B586B000AF0346B96054
:10159C007A60FB7300237B61FFF742FF78617A6806
:1015AC00B9687869FFF790FF024697F90F3011463A
:1015BC001846FFF75FFF00BF1837BD4680BD80B5EA
:1015CC0082B000AF0346FB7197F907301846FFF75E
:1015DC0035FF00BF0837BD4680BD80B582B000AF77
:1015EC0078607868FFF7A2FF034618460837BD46B7
:1015FC0080BD000080B48BB000AF786039600023F0
:10160C007B6200233B6248E101227B6A02FA03F30E
:10161C00FB613B681B68FA691340BB61BA69FB69E3
:10162C009A4240F037813B685B68A34A93425ED094
:10163C00A14A934275D8A14A934258D09F4A9342EB
:10164C006FD89F4A934252D09D4A934269D89D4A83
:10165C0093424CD09B4A934263D89B4A934246D0C8
:10166C00994A93425DD8122B2AD8122B59D801A231
:10167C0052F823F0FB160008D5160008E7160008F0
:10168C00291700082F1700082F1700082F1700081C
:10169C002F1700082F1700082F1700082F17000806
:1016AC002F1700082F1700082F1700082F170008F6
:1016BC002F1700082F170008DD160008F116000878
:1016CC00824A934213D02CE03B68DB683B6229E0F2
:1016DC003B68DB6804333B6224E03B68DB6808331F
:1016EC003B621FE03B68DB680C333B621AE03B68F3
:1016FC009B68002B02D104233B6213E03B689B6880
:10170C00012B05D108233B627B68FA691A6109E059
:10171C0008233B627B68FA695A6103E000233B6251
:10172C0000E000BFBB69FF2B01D87B6801E07B6840
:10173C0004337B61BB69FF2B02D87B6A9B0002E000
:10174C007B6A083B9B003B617B691A680F213B69F4
:10175C0001FA03F3DB431A40396A3B6901FA03F3DC
:10176C001A437B691A603B685B6803F08053002B5B
:10177C0000F09080564B9B69554A43F001039361EE
:10178C00534B9B6903F00103BB60BB68514A7B6AF6
:10179C009B08023352F82330FB607B6A03F003038F
:1017AC009B000F2202FA03F3DB43FA681340FB6041
:1017BC007B68494A93420DD07B68484A934207D0D4
:1017CC007B68474A934201D1022304E0032302E0E1
:1017DC00012300E000237A6A02F003029200934096
:1017EC00FA681343FB603B497B6A9B080233FA6837
:1017FC0041F823203B685B6803F48013002B06D070
:10180C00384B9A683749BB6913438B6006E0354BFC
:10181C009A68BB69DB43334913408B603B685B6858
:10182C0003F40013002B06D02E4BDA682D49BB694C
:10183C001343CB6006E02B4BDA68BB69DB432949C9
:10184C001340CB603B685B6803F40033002B06D07D
:10185C00244B5A682349BB6913434B6006E0214B68
:10186C005A68BB69DB431F4913404B603B685B689C
:10187C0003F48033002B06D01A4B1A681949BB6944
:10188C0013430B6006E0174B1A68BB69DB43154921
:10189C0013400B607B6A01337B623B681A687B6A7E
:1018AC0022FA03F3002B7FF4AFAE00BF00BF2C373E
:1018BC00BD4680BC704700BF0000321000003110E4
:1018CC000000221000002110000012100000111066
:1018DC00001002400000014000080140000C0140D3
:1018EC00001001400004014080B485B000AF786066
:1018FC000B467B807B689A687B881340002B02D058
:10190C000123FB7301E00023FB73FB7B18461437A8
:10191C00BD4680BC704780B483B000AF78600B4686
:10192C007B8013467B707B78002B03D07A887B6896
:10193C001A6103E07B881A047B681A6100BF0C37BC
:10194C00BD4680BC704780B485B000AF78600B4654
:10195C007B807B68DB68FB607A88FB6813401A0429
:10196C00FB68D9437B880B401A437B681A6100BF24
:10197C001437BD4680BC704780B586B000AF786028
:10198C007B68002B01D101236CE27B681B6803F0A0
:10199C000103002B00F08780924B5B6803F00C0373
:1019AC00042B0CD08F4B5B6803F00C03082B12D16B
:1019BC008C4B5B6803F48033B3F5803F0BD1894BC0
:1019CC001B6803F40033002B6CD07B685B68002B26
:1019DC0068D1012346E27B685B68B3F5803F06D192
:1019EC00804B1B687F4A43F4803313602EE07B6886
:1019FC005B68002B0CD17B4B1B687A4A23F4803339
:101A0C001360784B1B68774A23F4802313601DE026
:101A1C007B685B68B3F5A02F0CD1724B1B68714AC5
:101A2C0043F4802313606F4B1B686E4A43F480337E
:101A3C0013600BE06B4B1B686A4A23F48033136012
:101A4C00684B1B68674A23F4802313607B685B68D0
:101A5C00002B13D0FFF7B6FC386108E0FFF7B2FC9F
:101A6C0002463B69D31A642B01D90323FAE15D4B7F
:101A7C001B6803F40033002BF0D014E0FFF7A2FC3A
:101A8C00386108E0FFF79EFC02463B69D31A642BD1
:101A9C0001D90323E6E1534B1B6803F40033002BFD
:101AAC00F0D100E000BF7B681B6803F00203002B41
:101ABC0063D04C4B5B6803F00C03002B0BD0494BF1
:101ACC005B6803F00C03082B1CD1464B5B6803F4DA
:101ADC008033002B16D1434B1B6803F00203002B01
:101AEC0005D07B681B69012B01D00123BAE13D4B6A
:101AFC001B6823F0F8027B685B69DB0039491343F0
:101B0C000B603AE07B681B69002B20D0364B01221E
:101B1C001A60FFF757FC386108E0FFF753FC0246E8
:101B2C003B69D31A022B01D903239BE12D4B1B6874
:101B3C0003F00203002BF0D02A4B1B6823F0F802B1
:101B4C007B685B69DB00274913430B6015E0264B70
:101B5C0000221A60FFF736FC386108E0FFF732FC10
:101B6C0002463B69D31A022B01D903237AE11D4BA0
:101B7C001B6803F00203002BF0D17B681B6803F099
:101B8C000803002B3AD07B689B69002B19D0174BAC
:101B9C0001221A60FFF716FC386108E0FFF712FC0F
:101BAC0002463B69D31A022B01D903235AE10D4B90
:101BBC005B6A03F00203002BF0D0012000F09AFACC
:101BCC001CE00A4B00221A60FFF7FCFB38610FE0A7
:101BDC00FFF7F8FB02463B69D31A022B08D9032303
:101BEC0040E100BF0010024000004242800442422B
:101BFC009E4B5B6A03F00203002BE9D17B681B68E8
:101C0C0003F00403002B00F0A6800023FB75974B18
:101C1C00DB6903F08053002B0DD1944BDB69934AA5
:101C2C0043F08053D361914BDB6903F08053BB606D
:101C3C00BB680123FB758E4B1B6803F48073002B70
:101C4C0018D18B4B1B688A4A43F480731360FFF7DF
:101C5C00B9FB386108E0FFF7B5FB02463B69D31AC4
:101C6C00642B01D90323FDE0814B1B6803F48073C3
:101C7C00002BF0D07B68DB68012B06D17B4B1B6AF9
:101C8C007A4A43F0010313622DE07B68DB68002B7A
:101C9C000CD1764B1B6A754A23F001031362734B0C
:101CAC001B6A724A23F0040313621CE07B68DB6836
:101CBC00052B0CD16D4B1B6A6C4A43F00403136269
:101CCC006A4B1B6A694A43F0010313620BE0674BD2
:101CDC001B6A664A23F001031362644B1B6A634A56
:101CEC0023F0040313627B68DB68002B15D0FFF72D
:101CFC0069FB38610AE0FFF765FB02463B69D31AC2
:101D0C0041F28832934201D90323ABE0574B1B6A53
:101D1C0003F00203002BEED014E0FFF753FB386105
:101D2C000AE0FFF74FFB02463B69D31A41F28832B7
:101D3C00934201D9032395E04C4B1B6A03F0020339
:101D4C00002BEED1FB7D012B05D1484BDB69474ABB
:101D5C0023F08053D3617B68DB69002B00F081801A
:101D6C00424B5B6803F00C03082B61D07B68DB698A
:101D7C00022B46D13F4B00221A60FFF723FB386140
:101D8C0008E0FFF71FFB02463B69D31A022B01D96F
:101D9C00032367E0354B1B6803F00073002BF0D175
:101DAC007B681B6AB3F5803F08D1304B5B6823F42A
:101DBC0000327B689B682D4913434B602B4B5B684F
:101DCC0023F474127B68196A7B685B6A0B4327499E
:101DDC0013434B60274B01221A60FFF7F3FA38616B
:101DEC0008E0FFF7EFFA02463B69D31A022B01D940
:101DFC00032337E01D4B1B6803F00073002BF0D05E
:101E0C002FE01C4B00221A60FFF7DCFA386108E067
:101E1C00FFF7D8FA02463B69D31A022B01D90323E8
:101E2C0020E0124B1B6803F00073002BF0D118E07C
:101E3C007B68DB69012B01D1012313E00B4B5B6841
:101E4C00FB60FB6803F480327B681B6A9A4206D104
:101E5C00FB6803F470127B685B6A9A4201D0012321
:101E6C0000E0002318461837BD4680BD0010024024
:101E7C00007000406000424280B584B000AF7860D2
:101E8C0039607B68002B01D10123D0E06A4B1B68C1
:101E9C0003F007033A689A4210D9674B1B6823F08A
:101EAC00070265493B6813430B60634B1B6803F0E7
:101EBC0007033A689A4201D00123B8E07B681B689B
:101ECC0003F00203002B20D07B681B6803F0040393
:101EDC00002B05D0594B5B68584A43F4E0635360C0
:101EEC007B681B6803F00803002B05D0534B5B6821
:101EFC00524A43F460535360504B5B6823F0F0023A
:101F0C007B689B684D4913434B607B681B6803F0EF
:101F1C000103002B40D07B685B68012B07D1474B3A
:101F2C001B6803F40033002B15D101237FE07B6881
:101F3C005B68022B07D1414B1B6803F00073002B2D
:101F4C0009D1012373E03D4B1B6803F00203002B06
:101F5C0001D101236BE0394B5B6823F003027B68F2
:101F6C005B68364913434B60FFF72CFAF8600AE0C4
:101F7C00FFF728FA0246FB68D31A41F288329342E3
:101F8C0001D9032353E02D4B5B6803F00C027B68F3
:101F9C005B689B009A42EBD1274B1B6803F007034D
:101FAC003A689A4210D2244B1B6823F0070222494C
:101FBC003B6813430B60204B1B6803F007033A6824
:101FCC009A4201D0012332E07B681B6803F00403C2
:101FDC00002B08D0194B5B6823F4E0627B68DB684C
:101FEC00164913434B607B681B6803F00803002BF6
:101FFC0009D0124B5B6823F460527B681B69DB00D1
:10200C000E4913434B6000F021F802460B4B5B6802
:10201C001B0903F00F030A49CB5C22FA03F3094AAC
:10202C001360094B1B681846FFF78AF90023184602
:10203C001037BD4680BD00BF00200240001002409A
:10204C0094290008400000204400002080B487B090
:10205C0000AF0023FB600023BB6000237B610023E7
:10206C007B6000233B611E4B5B68FB60FB6803F0ED
:10207C000C03042B02D0082B03D027E0194B3B6137
:10208C0027E0FB689B0C03F00F03174AD35C7B60C3
:10209C00FB6803F48033002B10D0114B5B685B0C96
:1020AC0003F00103114AD35CBB607B680D4A02FB51
:1020BC0003F2BB68B2FBF3F37B6104E07B680C4A70
:1020CC0002FB03F37B617B693B6102E0054B3B61E7
:1020DC0000BF3B6918461C37BD4680BC704700BF2B
:1020EC000010024000127A00A4290008B42900084C
:1020FC0000093D0080B485B000AF78600A4B1B68C6
:10210C000A4AA2FB03235B0A7A6802FB03F3FB6017
:10211C0000BFFB685A1EFA60002BF9D100BF00BF4C
:10212C001437BD4680BC704740000020D34D621070
:10213C0080B582B000AF78607B68002B01D10123A1
:10214C0041E07B6893F83D30DBB2002B06D17B6815
:10215C00002283F83C207868FFF75AF87B6802224B
:10216C0083F83D207B681A687B6804331946104657
:10217C0000F06EFA7B68012283F846207B6801220E
:10218C0083F83E207B68012283F83F207B68012284
:10219C0083F840207B68012283F841207B68012270
:1021AC0083F842207B68012283F843207B6801225C
:1021BC0083F844207B68012283F845207B68012248
:1021CC0083F83D20002318460837BD4680BD00002B
:1021DC0080B485B000AF78607B6893F83D30DBB29B
:1021EC00012B01D0012335E07B68022283F83D20CE
:1021FC007B681B68DA687B681B6842F00102DA6056
:10220C007B681B68164A934209D07B681B68B3F144
:10221C00804F04D07B681B68124A934211D17B68B3
:10222C001B689B6803F00703FB60FB68062B10D050
:10223C007B681B681A687B681B6842F001021A6095
:10224C0007E07B681B681A687B681B6842F0010218
:10225C001A60002318461437BD4680BC704700BF77
:10226C00002C01400004004080B582B000AF7860C3
:10227C007B681B681B6903F00203022B22D17B686D
:10228C001B68DB6803F00203022B1BD17B681B6805
:10229C006FF002021A617B6801221A777B681B6857
:1022AC009B6903F00303002B03D0786800F0B4F9AA
:1022BC0005E0786800F0A7F9786800F0B6F97B685B
:1022CC0000221A777B681B681B6903F00403042B3C
:1022DC0022D17B681B68DB6803F00403042B1BD141
:1022EC007B681B686FF004021A617B6802221A7704
:1022FC007B681B689B6903F44073002B03D07868E0
:10230C0000F08AF905E0786800F07DF9786800F053
:10231C008CF97B6800221A777B681B681B6903F0B9
:10232C000803082B22D17B681B68DB6803F00803C9
:10233C00082B1BD17B681B686FF008021A617B6845
:10234C0004221A777B681B68DB6903F00303002BFC
:10235C0003D0786800F060F905E0786800F053F974
:10236C00786800F062F97B6800221A777B681B683A
:10237C001B6903F01003102B22D17B681B68DB68F0
:10238C0003F01003102B1BD17B681B686FF010023D
:10239C001A617B6808221A777B681B68DB6903F477
:1023AC004073002B03D0786800F036F905E07868AC
:1023BC0000F029F9786800F038F97B6800221A7768
:1023CC007B681B681B6903F00103012B0ED17B6832
:1023DC001B68DB6803F00103012B07D17B681B68CA
:1023EC006FF001021A617868FEF732FE7B681B6899
:1023FC001B6903F08003802B0ED17B681B68DB68A4
:10240C0003F08003802B07D17B681B686FF0800280
:10241C001A61786800F06BFA7B681B681B6903F023
:10242C004003402B0ED17B681B68DB6803F0400334
:10243C00402B07D17B681B686FF040021A617868EB
:10244C0000F0FCF87B681B681B6903F02003202B51
:10245C000ED17B681B68DB6803F02003202B07D1AF
:10246C007B681B686FF020021A61786800F036FAFE
:10247C0000BF0837BD4680BD80B584B000AF786022
:10248C0039600023FB737B6893F83C30012B01D13E
:10249C000223B4E07B68012283F83C207B68022293
:1024AC0083F83D207B681B689B68BB60BB6823F08E
:1024BC007703BB60BB6823F47F43BB607B681B68FE
:1024CC00BA689A603B681B68B3F5005F3ED0B3F501
:1024DC00005F00F28780B3F5805F00F08680B3F573
:1024EC00805F7FD8702B1AD0702B7BD8602B50D08C
:1024FC00602B77D8502B3CD0502B73D8402B58D016
:10250C00402B6FD8302B64D0302B6BD8202B60D065
:10251C00202B67D8002B5CD0102B5AD062E07B6844
:10252C0018683B6899683B685A683B68DB6800F040
:10253C005EF97B681B689B68BB60BB6843F07703E4
:10254C00BB607B681B68BA689A604FE07B68186850
:10255C003B6899683B685A683B68DB6800F047F950
:10256C007B681B689A687B681B6842F480429A609F
:10257C003CE07B6818683B6859683B68DB681A4626
:10258C0000F0BEF87B681B685021184600F015F966
:10259C002CE07B6818683B6859683B68DB681A4616
:1025AC0000F0DCF87B681B686021184600F005F928
:1025BC001CE07B6818683B6859683B68DB681A4606
:1025CC0000F09EF87B681B684021184600F0F5F877
:1025DC000CE07B681A683B681B681946104600F0D3
:1025EC00ECF803E00123FB7300E000BF7B680122E1
:1025FC0083F83D207B68002283F83C20FB7B184647
:10260C001037BD4680BD80B483B000AF786000BF8A
:10261C000C37BD4680BC704780B483B000AF786087
:10262C0000BF0C37BD4680BC704780B483B000AF90
:10263C00786000BF0C37BD4680BC704780B483B057
:10264C0000AF786000BF0C37BD4680BC70470000FF
:10265C0080B485B000AF786039607B681B68FB6024
:10266C007B68254A934207D07B68B3F1804F03D037
:10267C007B68224A934208D1FB6823F07003FB600D
:10268C003B685B68FA681343FB607B681A4A9342A9
:10269C0007D07B68B3F1804F03D07B68174A934215
:1026AC0008D1FB6823F44073FB603B68DB68FA6875
:1026BC001343FB60FB6823F080023B685B691343A8
:1026CC00FB607B68FA681A603B689A687B68DA6220
:1026DC003B681A687B689A627B68074A934203D10D
:1026EC003B681A697B681A637B6801225A6100BFD8
:1026FC001437BD4680BC7047002C014000040040DC
:10270C0080B487B000AFF860B9607A60FB681B6A70
:10271C007B61FB681B6A23F00102FB681A62FB6891
:10272C009B693B613B6923F0F0033B617B681B01B8
:10273C003A6913433B617B6923F00A037B617A6935
:10274C00BB6813437B61FB683A699A61FB687A69E1
:10275C001A6200BF1C37BD4680BC704780B487B07E
:10276C0000AFF860B9607A60FB681B6A7B61FB683C
:10277C001B6A23F01002FB681A62FB689B693B61C1
:10278C003B6923F470433B617B681B033A69134339
:10279C003B617B6923F0A0037B61BB681B017A69F9
:1027AC0013437B61FB683A699A61FB687A691A6228
:1027BC0000BF1C37BD4680BC704780B485B000AFED
:1027CC00786039607B689B68FB60FB6823F0700362
:1027DC00FB603A68FB68134343F00703FB607B68BC
:1027EC00FA689A6000BF1437BD4680BC704780B44D
:1027FC0087B000AFF860B9607A603B60FB689B689B
:10280C007B617B6923F47F437B613B681A027B68A5
:10281C001A43BB6813437A6913437B61FB687A697B
:10282C009A6000BF1C37BD4680BC704780B485B031
:10283C0000AF786039607B6893F83C30012B01D194
:10284C00022341E07B68012283F83C207B68022252
:10285C0083F83D207B681B685B68FB607B681B68AA
:10286C009B68BB60FB6823F07003FB603B681B68D4
:10287C00FA681343FB607B681B68FA685A607B68D4
:10288C001B68144A934209D07B681B68B3F1804FD4
:10289C0004D07B681B68104A93420CD1BB6823F0B0
:1028AC008003BB603B685B68BA681343BB607B68A2
:1028BC001B68BA689A607B68012283F83D207B68AC
:1028CC00002283F83C20002318461437BD4680BCF8
:1028DC00704700BF002C01400004004080B483B05E
:1028EC0000AF786000BF0C37BD4680BC704780B429
:1028FC0083B000AF786000BF0C37BD4680BC70471A
:10290C0070B500260C4D0D4C641BA410A64209D1C9
:10291C0000F022F800260A4D0A4C641BA410A642B3
:10292C0005D170BD55F8043B98470136EEE755F8D4
:10293C00043B98470136F2E7B8290008B82900088B
:10294C00B8290008BC29000803460244934200D170
:10295C00704703F8011BF9E7F8B500BFF8BC08BCD9
:10296C009E467047F8B500BFF8BC08BC9E46704741
:10297C00000C0140000C0140000C01400020000044
:10298C00004000000080000000000000000000007B
:10299C0001020304060708090203040506070809D7
:0C29AC000A0B0C0D0E0F101001020000B1
:0429B80031010008E1
:0429BC000D01000801
:1029C0000100000001000000010000000100000003
:1029D00001000000010000000100000001000000F3
:1029E00001000000010000000100000001000000E3
:1029F0006400000005000000020000000300000069
:0C2A00000024F4001000000001000000A1
:04000005080012D508
:00000001FF
